:020000040800F2
:100000000050002071180008E1170008E3170008ED
:10001000E5170008E7170008E917000800000000CE
:10002000000000000000000000000000EB170008C6
:10003000ED17000800000000EF170008F117000896
:10004000B9180008B9180008B9180008B91800084C
:10005000B9180008B9180008B9180008B91800083C
:10006000B9180008B9180008B9180008B91800082C
:10007000B9180008B9180008B9180008B91800081C
:10008000011800080D180008B9180008B918000870
:10009000B9180008B9180008B9180008B9180008FC
:1000A000B9180008B9180008B9180008B9180008EC
:1000B000B9180008B9180008B9180008B9180008DC
:1000C000B9180008B9180008B9180008B9180008CC
:1000D000B9180008B918000819180008B91800085C
:1000E000B9180008B9180008B91800080000000085
:1000F0000000000000000000000000000000000000
:0C01000000000000000000005FF808F1A3
:10010C0010B5054C237833B9044B13B10448AFF345
:10011C0000800123237010BD10000020000000009F
:10012C000419000808B5034B1BB103490348AFF38E
:10013C00008008BD00000000140000200419000815
:10014C0038B50E4B054618784FF47A73B3FBF0F3C1
:10015C000B4A1068B0FBF3F000F09EF8044658B957
:10016C000F2D09D8024629464FF0FF3000F054F805
:10017C00044B20461D6038BD012038BD0000002016
:10018C000C00002004000020074A08B51368032067
:10019C0043F01003136000F02DF80020FFF7D0FFA0
:1001AC0001F05CFA002008BD00200240034A044B19
:1001BC0011681B780B441360704700BF300000209F
:1001CC0000000020014B1868704700BF3000002071
:1001DC0038B50446FFF7F6FF0546631C1EBF044BFB
:1001EC001B78E418FFF7EEFF401B8442FAD838BDA9
:1001FC0000000020074A0002D36800F4E06023F4FA
:10020C00E0631B041B0C43F0BF6343F40033034354
:10021C00D360704700ED00E0174B30B5DC68C4F3D9
:10022C000224C4F10703251D042B28BF0423062D2B
:10023C004FF0010598BF002405FA03F303F1FF33D7
:10024C0088BF033C1940A14005FA04F4013C22404C
:10025C00002842EA01024FEA0212AFBF00F16040EF
:10026C00064B00F00F00D2B2A5BFD2B200F5614030
:10027C001A5480F8002330BD00ED00E014ED00E0CE
:10028C000123420900F01F0003FA00F0014B43F870
:10029C002200704700E100E00138B0F1807F0AD203
:1002AC00F021064B064A586082F8231000200722E2
:1002BC0098601A6070470120704700BF10E000E0A2
:1002CC0000ED00E0044B04281A680CBF42F0040255
:1002DC0022F004021A60704710E000E0704708B585
:1002EC00FFF7FCFF08BD000010B550B314220168E5
:1002FC00154B84680B44B3FBF2F39B000364134B64
:10030C000A68C363436822F47F522343C46822F013
:10031C003002234304692343446923438469234300
:10032C00C469234313430B600122002380F821206E
:10033C008362C36203634363836380F8203018468F
:10034C0010BD012010BD00BFF8FFFDBF0000024032
:10035C00F0B590F82040012C35D0012490F82150B4
:10036C0080F82040A5424FF000064FF0020428D13F
:10037C0080F82140046886632668076C26F0010625
:10038C002660C66BBD407560636043680568102BC2
:10039C00C36A0BBFA260A160E160E2604BB123684D
:1003AC0043F00E0323602B68002043F001032B6005
:1003BC00F0BD236823F004032360236843F00A0391
:1003CC00F0E780F820600220F0BD000090F82130AA
:1003DC0010B5022B03D004238363012010BD0368E6
:1003EC001A6822F00E021A601A6822F001021A60D2
:1003FC00184A93421FD0143293421ED014329342A7
:10040C001DD0143293421DD0143293421DD014329D
:10041C0093420CBF4FF480134FF080730E4A0024AC
:10042C005360012380F82130436B80F820407BB16E
:10043C009847204610BD0123F0E71023EEE74FF458
:10044C008073EBE74FF48053E8E74FF48033E5E734
:10045C00184610BD080002400000024070B404258C
:10046C00C66B026C3468036895402542196832D01B
:10047C004D0730D51A6896065EBF1A6822F0040242
:10048C001A603E4A934219D01432934218D0143257
:10049C00934217D01432934217D01432934217D090
:1004AC00143293420CBF4FF480034FF08063344AF4
:1004BC005360C36A002B5ED070BC18470423F6E768
:1004CC004023F4E74FF48063F1E74FF48043EEE709
:1004DC004FF48023EBE702259540254235D08D075C
:1004EC0033D51A68940606D41A6822F00A021A60E8
:1004FC00012280F82120214A934219D014329342D0
:10050C0018D01432934217D01432934217D01432AD
:10051C00934217D0143293420CBF4FF400134FF098
:10052C000073174A5360002380F82030836AC1E7B8
:10053C000223F6E72023F4E74FF40073F1E74FF4BE
:10054C000053EEE74FF40033EBE7082595402542C6
:10055C0011D009070FD5196821F00E01196001237C
:10056C0003FA02F27260836380F82130002380F872
:10057C002030036B9EE770BC704700BF0800024040
:10058C00000002402DE9F74F00221646654BDFF8BC
:10059C00A4E1DFF8A4C14FF001080C6808FA06F8D2
:1005AC0008EA0404A0457FD14D68122D00F0AF80FD
:1005BC0000F28880022D00F0A7807CD8002D00F07E
:1005CC008E80012D00F09E804FF00F09FF2C93BF01
:1005DC00824606F18045083DD0F800B092BFB500C8
:1005EC00D0F804B0AD0009FA05F82BEA080802FAB5
:1005FC0005F588BF00F1040A48EA0505CAF8005061
:10060C00D1F804A01AF0805F4ED0474D464FAD692B
:10061C0026F0030845F00105BD61BD6908F180486D
:10062C0005F00105019508F5803806F0030B019DD6
:10063C004FEA8B0BD8F8085009FA0BF925EA09098F
:10064C003A4DA84268D005F58065A84266D005F5FC
:10065C008065A84264D005F58065A8420CBF0325CF
:10066C00042505FA0BF545EA0905C8F808501D687C
:10067C001AF4803F14BF2543A5431D605D681AF42E
:10068C00003F14BF2543A5435D609D681AF4801F8D
:10069C0014BF2543A5439D60DD681AF4001F14BFE9
:1006AC002C4325EA0404DC600136102E7FF473AF72
:1006BC0003B0BDE8F08F032D22D0112D84D1CA6870
:1006CC00043281E71A4FBD4209D012D8DFF86C9082
:1006DC004D4504D009F580394D457FF475AF8A68D6
:1006EC00C2B1012A0CBFC0F81080C0F814800822D7
:1006FC006AE77545F3D06545F1D0DFF84490EBE738
:10070C00002261E7CA685FE7CA6808325CE7CA681A
:10071C000C3259E7042257E70025A2E70125A0E790
:10072C0002259EE700040140001002400008014031
:10073C0000002110000031100000321000001110D8
:10074C00000022108368194214BF0120002070475A
:10075C000AB1016170470904FBE7000003682DE949
:10076C00F341DB07054610D42B689F075ED42B683A
:10077C00190700F195802B685A0700F1BF80EA69D0
:10078C00002A40F02D81002014E0904C636803F0A7
:10079C000C03042B07D0636803F00C03082B0CD15B
:1007AC006368DE0309D523689C03DDD56B68002BD9
:1007BC00DAD1012002B0BDE8F0816B68B3F5803F5F
:1007CC0010D1236843F480332360FFF7FBFC06460B
:1007DC0023689803C8D4FFF7F5FC801B6428F7D96D
:1007EC000320E7E79BB9236823F480332360236855
:1007FC0023F480232360FFF7E5FC06462368990366
:10080C00B2D5FFF7DFFC801B6428F7D9E8E7B3F516
:10081C00A02F236803D143F480232360D1E723F472
:10082C0080332360236823F48023CDE7674C63680F
:10083C0013F00C0F07D0636803F00C03082B10D1D6
:10084C006368DA030DD423689B0702D52B69012B4F
:10085C00AFD123686A6923F0F80343EAC20323602B
:10086C0085E72A695A4B6AB101221A60FFF7AAFC84
:10087C00064623689F07ECD4FFF7A4FC801B0228D4
:10088C00F7D9ADE71A60FFF79DFC06462368980779
:10089C007FF56DAFFFF796FC801B0228F6D99FE71A
:1008AC00AA694A4C4B4BDAB101221A60FFF78AFC59
:1008BC000646636A9B070DD54FF4FA52464B1B68EC
:1008CC00B3FBF2F3019300BF019B5A1E0192002B64
:1008DC00F9D150E7FFF776FC801B0228E9D97FE7B6
:1008EC001A60FFF76FFC0646636A9F077FF543AFFC
:1008FC00FFF768FC801B0228F6D971E7334CE369DB
:10090C00D80024D40127E36943F08053E361E36901
:10091C0003F080530093009B304E3368D90518D5F3
:10092C00EB68012B26D1236A43F001032362FFF706
:10093C0049FC41F288368046236A9B073FD5002F3D
:10094C003FF41DAFE36923F08053E36117E7002701
:10095C00E2E7336843F480733360FFF733FC80467F
:10096C003368DA05DCD4FFF72DFCA0EB0800642813
:10097C00F6D935E7ABB9236A41F2883823F0010385
:10098C002362236A23F004032362FFF71BFC064651
:10099C00236A9807D3D5FFF715FC801B4045F7D980
:1009AC001EE7052B236A03D143F004032362BAE745
:1009BC0023F001032362236A23F00403B6E7FFF755
:1009CC0001FCA0EB0800B042B6D909E700100240C8
:1009DC0000004242800442420C00002000700040A3
:1009EC00224C636803F00C03082B3FF4E2AE0023A7
:1009FC001F4E022A33602BD1FFF7E4FB0746236816
:100A0C0099011FD42B6AB3F5803F05D16268A968A0
:100A1C0022F400320A436260696A62680B4322F472
:100A2C0074121343636001233360FFF7CBFB05465D
:100A3C0023689A013FF5A7AEFFF7C4FB401B0228C1
:100A4C00F6D9CDE6FFF7BEFBC01B0228D7D9C7E607
:100A5C00FFF7B8FB054623689B017FF594AEFFF7C3
:100A6C00B1FB401B0228F6D9BAE600BF00100240C9
:100A7C006000424230B5194B87B002AC03F110054F
:100A8C00224618685968083303C2AB421446F7D1A2
:100A9C0001238DF80430022311498DF805304B6881
:100AAC0003F00C02082A17D1C3F3834206A80244B0
:100ABC00DB0312F8102C0CD54B680A48C3F34043E7
:100ACC00504306AA134413F8143CB0FBF3F007B0E0
:100ADC0030BD05485043FAE70248F8E71C190008F6
:100AEC000010024000127A0000093D004D4A2DE929
:100AFC00F0411368054603F007038B420E4628D3DA
:100B0C002A68910732D4D20738D4464A136803F0C6
:100B1C0007039E4273D32A68434C12F0040F79D119
:100B2C00130706D563682A6923F4605343EAC203AA
:100B3C006360FFF79FFF63683C4AC3F30313D35C06
:100B4C00D8403B4B18600020FFF7FAFA0020BDE8B4
:100B5C00F081136823F007030B431360136803F051
:100B6C0007039942CCD00120BDE8F0812E49A8683A
:100B7C004B6823F0F00303434B60C4E76A682A4CCC
:100B8C00012A23681CD113F4003FECD0636841F2B6
:100B9C00883823F0030313436360FFF713FB6B6880
:100BAC000746012B14D1636803F00C03042BACD063
:100BBC00FFF708FBC01B4045F5D90320BDE8F081C9
:100BCC00022A02D113F0007FDFE713F0020FDCE7FB
:100BDC00022B0FD1636803F00C03082B95D0FFF7A1
:100BEC00F1FAC01B4045F5D9E7E7FFF7EBFAC01B5C
:100BFC004045E2D8636813F00C0FF6D185E7136813
:100C0C0023F0070333431360136803F007039E427A
:100C1C00A9D180E76368E96823F4E0630B43636060
:100C2C007EE700BF00200240001002404A19000875
:100C3C000C000020014B1868704700BF0C0000200E
:100C4C00044B054A5B68C3F30223D35C034A106868
:100C5C00D8407047001002405A1900080C000020C0
:100C6C00044B054A5B68C3F3C223D35C034A106888
:100C7C00D8407047001002405A1900080C000020A0
:100C8C000368DA6822F49072DA605A6922F0010281
:100C9C005A61202380F83A30704700002DE9F04764
:100CAC000568C2682B69016923F4405313432B6117
:100CBC008368EA680B43416922F4B05222F00C02BB
:100CCC000B431343EB606B69826923F4407313434A
:100CDC006B61404B81469D424FF0190446D1FFF7A2
:100CEC00BFFF04FB00F3D9F804604FF06408B600B2
:100CFC00B3FBF6F3B3FBF8F31E01FFF7B1FF604350
:100D0C00D9F804309B00B0FBF3F7FFF7A9FF604361
:100D1C00D9F804309B00B0FBF3F3B3FBF8F308FBFA
:100D2C0013731B013233B3FBF8F303F0F007FFF737
:100D3C0097FF6043D9F804209200B0FBF2FAFFF75A
:100D4C008FFF6043D9F804309B00B0FBF3F3B3FB87
:100D5C00F8F308FB13A31B013233B3FBF8F303F0D6
:100D6C000F033B433344AB60BDE8F087FFF768FFEC
:100D7C0004FB00F3D9F804604FF06408B600B3FB31
:100D8C00F6F3B3FBF8F31E01FFF75AFF6043D9F8F3
:100D9C0004309B00B0FBF3F7FFF752FF6043D9F828
:100DAC0004309B00B0FBF3F3B3FBF8F308FB1373B5
:100DBC001B013233B3FBF8F303F0F007FFF740FFEE
:100DCC006043D9F804209200B0FBF2FAFFF738FF29
:100DDC00B7E700BF00380140F8B504460E46174689
:100DEC001D4621680B6836EA030301D10020F8BDCB
:100DFC006B1CF7D095B923680320DA6822F4D07203
:100E0C00DA605A6922F001025A61202384F83930E1
:100E1C0084F83A30002384F83830F8BDFFF7D2F963
:100E2C00C01B8542DDD2E6E710B5044640B390F80E
:100E3C00393003F0FF021BB980F8382000F05EFC5B
:100E4C002423226884F83930D368204623F40053D5
:100E5C00D360FFF723FF236800201A6922F4904225
:100E6C001A615A6922F02A025A61DA6842F4005275
:100E7C00DA602023E06384F8393084F83A3010BD0E
:100E8C00012010BD2DE9F0411F4690F83930044681
:100E9C00202B0D4690464ED1002949D0002A47D030
:100EAC0090F83830012B46D0012380F838300023DD
:100EBC00C363212380F83930FFF784F90646A4F880
:100ECC002480A4F82680E38C9BB26BB93B46324657
:100EDC0040212046FFF780FFA8B9202384F8380072
:100EEC0084F83930BDE8F081E38C3246013B9BB28B
:100EFC00E384A3688021B3F5805F20463B460ED186
:100F0C00FFF76AFF10B10320BDE8F0812B8822683F
:100F1C00C3F308035360236943B90235D3E7FFF7E2
:100F2C005BFF0028EFD123682A785A600135CAE7A5
:100F3C000120BDE8F0810220BDE8F081134690F855
:100F4C003A2073B5202A054638D1002934D0002B1D
:100F5C0032D090F83820012A30D00122002480F8B9
:100F6C003820222281628385C46380F83A20406B4A
:100F7C00134A2E688262134A4463C262124A0263A5
:100F8C000A46311DFFF7E4F920462B6801941A68D4
:100F9C0001925A6885F838400192019ADA6842F455
:100FAC008072DA605A6942F001025A615A6942F061
:100FBC0040025A6102B070BD0120FBE70220F9E744
:100FCC00DB0F0008911000089D100008704708B551
:100FDC000368426A1B6813F0200310D1D385136891
:100FEC00D96821F48071D960596921F001015961E6
:100FFC00596921F040015961202382F83A3010469A
:10100C0000F0B6F908BD90F83A3010B5222B36D165
:10101C0083680169B3F5805F0268836A23D15268E3
:10102C00E9B9C2F3080223F8022B8362C48D013C98
:10103C00A4B2C4858CB90368DA6822F02002DA60A5
:10104C00DA6822F48072DA605A6922F001025A617D
:10105C00202380F83A3000F08BF9002010BDD2B27A
:10106C0023F8012BE1E721B9591C526881621A70EF
:10107C00DCE75268591C816202F07F02F7E702201C
:10108C0010BD704708B5406AFFF7FBFF08BD7047FD
:10109C00416A08B50B685A6991F8390021280AD1C0
:1010AC00120608D50022CA84DA6822F0C002DA607F
:1010BC00202281F839205B6991F83A20222A06D146
:1010CC005B0604D500230846CB85FFF7D9FDCB6B17
:1010DC00084643F01003CB63FFF7D9FF08BD0000AF
:1010EC00036870B51A6804461607D9685D6907D19C
:1010FC0096065AD58D0658D5BDE87040FFF783BFCC
:10110C0015F0010502D111F4907F4ED0D30705D50F
:10111C00CE0542BFE36B43F00103E363500704D5F4
:10112C001DB1E36B43F00203E363930704D51DB1D8
:10113C00E36B43F00403E363160704D51DB1E36BC3
:10114C0043F00803E363E36B002B66D0950604D5EC
:10115C00880602D52046FFF756FF236820465D69B6
:10116C00E26B110702D415F040051AD0FFF788FD89
:10117C0023685A69520610D55A69606B22F04002F6
:10118C005A6150B1254B4363FFF720F9002844D036
:10119C00606BBDE87040436B18472046FFF777FF44
:1011AC0070BDFFF774FFE56370BD160627D50D06FD
:1011BC0025D594F83920212A2FD1A268B2F5805F69
:1011CC00226A17D11188C1F308015960216979B9D4
:1011DC0002322262E28C013A92B2E284EAB9DA6813
:1011EC0022F08002DA60DA6842F04002DA6070BD08
:1011FC000132EEE7511C216212785A60EAE7500680
:10120C000BD54A0609D5DA68204622F04002DA608E
:10121C00202384F83930FFF7D9FE70BD2D12000859
:10122C0008B50023406AC385C384FFF730FF08BDAF
:10123C000D4BDA6822F08072DA60DA6842F0807264
:10124C00DA600A4B1A6822F001021A601A6842F03E
:10125C0001021A6000225A6000BF00BF00BF58682C
:10126C00B0FA80F040097047F0ED00E0001000E0AB
:10127C0037B5094C01906568FFF7DCFC074A019B08
:10128C00B0FBF2F0434301936368019A5B1B9342FA
:10129C00FAD303B030BD00BF001000E040420F0095
:1012AC002DE9F84380460E4619B92E4B198059800A
:1012BC0099800120FFF7DCFF0F24DFF8B0902A4F54
:1012CC0048FA04F202F001024FF400412748FFF7FC
:1012DC003FFA01224FF480512448FFF739FA0120DC
:1012EC00FFF7C6FF00224FF480512048FFF730FA79
:1012FC00002E33D14FF480414846FFF723FA194DA5
:10130C00431E584258412B88A040184328804FF464
:10131C0080713846FFF716FA421E50426B885041D6
:10132C00A040184368804FF400713846FFF70AFA62
:10133C00411E4842AB884841A0401843A88014F194
:10134C00FF34BDD2074B1A8801321A805A880132F9
:10135C005A809A8801329A80BDE8F8830220FFF700
:10136C0087FFECE7BC00002000080140000C0140A6
:10137C00124B1B78302B07D1EB22114B1A80012218
:10138C000E491048FFF7DABD312B02D140F2EB22A7
:10139C00F3E7322B02D140F2EB42EEE7332B02D1D2
:1013AC0040F2EB62E9E7342B02D140F6EB02E4E7C2
:1013BC00352BE4D140F6EB22DFE700BFC200002062
:1013CC0008000020C40000204FF4803310B590B00A
:1013DC0001220793002102240E934FF4E01306A878
:1013EC00069208910A920D940F93FFF7B7F900B18A
:1013FC00FEE70F2301934FF4806303900590214681
:10140C0001A802940493FFF771FB044600B1FEE7B8
:10141C00FFF710FC4FF47A73B0FBF3F0FEF73CFFD0
:10142C000420FEF74FFF224621464FF0FF30FEF717
:10143C00F3FE10B010BD000080B57B4D88B0FEF7F8
:10144C00A3FEFFF7C1FFAB690024012643F0100394
:10145C004FF002084FF40057AB61AB69002203F068
:10146C0010030093009BAB694FF4005143F0200331
:10147C00AB61AB696D4803F020030193019BAB6931
:10148C0043F00403AB61AB6903F004030293029BCA
:10149C00AB6943F00803AB61AB6903F0080303933A
:1014AC00039BFFF755F900224FF430416048FFF7DA
:1014BC004FF904A95D48069404970596CDF81C8055
:1014CC00FFF760F84FF4304304A95948049306948D
:1014DC000596CDF81C80FFF755F84FF4804304A90E
:1014EC005348049305940694FFF74CF84FF440735B
:1014FC0004A95048049305940694FFF743F86B69CC
:10150C00224633436B616B692146334004931020B0
:10151C00049BFEF781FE1020FEF7B2FE2246214608
:10152C001120FEF779FE1120FEF7AAFE424D434A28
:10153C00434B284685E80C000C23AC60EC602C6116
:10154C00AC61EC616B61FFF76FFC044600B1FEE728
:10155C00324639463548FFF7FBF8324639463448AF
:10156C00FFF7F6F822464FF480513148FFF7F0F8B8
:10157C0022464FF400412E48FFF7EAF8FFF758FED9
:10158C00334642462F492846FFF77CFC4FF47A70CD
:10159C00FEF71EFE224639462548FFF7D9F831469C
:1015AC0040F2EB40FFF77CFE314640F2EB40FFF798
:1015BC0077FE224639461D48FFF7CAF832462846C0
:1015CC002149FFF7BBFC1A4E1A4D204C4FF48041B9
:1015DC003046FFF7B7F80028F8D100F180404FF4FF
:1015EC00807100F58430FFF7ADF80028EED14FF490
:1015FC0000712846FFF7A6F801460028E6D120889E
:10160C00FFF74EFE20880121FFF74AFE0123104907
:10161C001A460948FFF736FC012306220D490648F5
:10162C00FFF730FCD2E700BF001002400010014071
:10163C00000C014000080140C400002000440040A0
:10164C00001815002C190008C2000020080000200A
:10165C002C000020BC000020FEE70000254B07B545
:10166C009A69032042F001029A619A6902F0010220
:10167C000092009ADA6942F08052DA61DB6903F079
:10168C0080530193019BFEF7B5FD00226FF00B0018
:10169C001146FEF7C1FD00226FF00A001146FEF75D
:1016AC00BBFD00226FF009001146FEF7B5FD0022CC
:1016BC006FF004001146FEF7AFFD00226FF003003F
:1016CC001146FEF7A9FD00226FF001001146FEF74E
:1016DC00A3FD00224FF0FF301146FEF79DFD064A98
:1016EC00536823F0E06343F00073536003B05DF87C
:1016FC0004FB00BF001002400000014070B50268FE
:10170C002D4B86B09A42064653D103F5E633DA697F
:10171C0002A942F40032DA61DB69284803F4003391
:10172C000193019B04230293022303930323059348
:10173C00FEF728FF082300250DEB03011F48204C62
:10174C00029303950495FEF71DFF1E4B204684E87B
:10175C0028008023A560E36025616561A561E561D2
:10176C00FEF7C2FD18B17E211748FFF775FF4FF049
:10177C00100C164B74636662154C802284E80810BA
:10178C0000232046A360E26023616361A361E361EF
:10179C00FEF7AAFD18B18E210B48FFF75DFF002262
:1017AC002620346311466662FEF736FD2620FEF7CE
:1017BC0067FD06B070BD00BF00440040000801404A
:1017CC00340000206C0002402F19000880000240F9
:1017DC00780000207047FEE7FEE7FEE7FEE7704763
:1017EC007047704708B5FEF7E1FCBDE80840FEF70E
:1017FC0076BD00000148FEF731BE00BF340000206A
:10180C000148FEF72BBE00BF780000200148FFF70F
:10181C0067BC00BFC40000200F4B1A6842F00102E5
:10182C001A6059680D4A0A405A601A6822F084728C
:10183C0022F480321A601A6822F480221A605A68E4
:10184C0022F4FE025A604FF41F029A604FF00062BD
:10185C00034B9A60704700BF001002400000FFF875
:10186C0000ED00E0002103E00B4B5B5843500431CA
:10187C000A480B4B42189A42F6D30A4A02E000235C
:10188C0042F8043B084B9A42F9D3FFF7C5FF00F02E
:10189C000FF8FFF7D1FD70476C190008000000200D
:1018AC00100000201000002004010020FEE70000C2
:1018BC0070B500250C4E0D4CA41BA410A54209D1EB
:1018CC0000F01AF800250A4E0A4CA41BA410A542DD
:1018DC0005D170BD56F8253098470135EEE756F81E
:1018EC00253098470135F2E764190008641900089F
:1018FC006419000868190008F8B500BFF8BC08BCEA
:10190C009E467047F8B500BFF8BC08BC9E467047B1
:10191C0002030405060708090A0B0C0D0E0F101024
:10192C004154002E2E5C5372635C73746D333266BB
:10193C003178785F68616C5F6D73702E63000000A6
:10194C000000000000000102030406070809000063
:08195C00000001020304000079
:041964003101000845
:041968000D01000865
:10196C000100000010000000EB04000000A24A047B
:040000050800187166
:00000001FF
